:1000000048C0F4C161C060C05FC05EC05DC05CC07C
:100010005BC05AC059C058C057C056C055C009022D
:100020002200010100800A09040000010300000011
:10003000092101010001221600070581030800645F
:100040001201100100000008C016DF0500010102C6
:100050000001140344006100740061005300740047
:100060006F007200650012036F006200640065009B
:1000700076002E0061007400040309040600FF09E5
:1000800001A101150026FF00750895800900B20244
:1000900001C011241FBECFE5D2E0DEBFCDBF10E00E
:1000A000A0E6B0E0E2E6F8E002C005900D92A236CC
:1000B000B107D9F720E0A2E6B0E001C01D92AC394B
:1000C000B207E1F789D3CBC39BCFCF93C62F209143
:1000D000710024FF07C03091720028E82327209385
:1000E000720003C02AE520937100DC01E3E7F0E031
:1000F0009C2F9E0F8D918193892F8E1B1816D4F300
:100100006C2F83E790E05BD1CC5FC0937100CF91FF
:100110000895CF93DF9360918200635067FDBFC065
:1001200080917F00CCE0D0E0C81BD109CA57DF4FD7
:1001300080917E008D3209F0A1C0683009F0ADC019
:1001400083EC809366008AE58093610010926300DF
:100150008881807639F0CE012DD3982F8F3F09F416
:100160007CC082C09A8110926F008981811106C083
:10017000109270002FE630E092E06AC0853019F4EA
:100180009093830062C0863009F049C08B81813032
:1001900019F480E490E01AC0823041F48EE190E0DE
:1001A000909381008093800092E235C08330F1F417
:1001B000911108C088E790E09093810080938000BF
:1001C00094E029C0913041F486E690E0909381005C
:1001D0008093800092E11FC09230E1F482E590E0CC
:1001E000909381008093800094E115C0813241F4A6
:1001F00080E390E0909381008093800099E00BC0B1
:10020000823241F48CE790E09093810080938000EB
:1002100096E101C090E080E48093630025C08830BF
:1002200069F0893019F4909385000FC08A3049F045
:100230008B3059F48BE48093720007C025E830E0DE
:1002400002C02FE630E091E003C02FE630E090E0FE
:10025000309381002093800007C0888187FD9E81B4
:1002600080E88093630007C08F81811104C08E8174
:10027000891708F4982F909360000FC08091630055
:1002800087FF0BC0CE016AD28F3F21F48EE18093AD
:10029000610003C081111092600010928200809171
:1002A000610084FF4FC0809160008F3F09F44AC015
:1002B000C82F893008F0C8E08C1B809360009091B3
:1002C000660088E8892780936600CC2351F130913D
:1002D000630037FF08C06C2F87E690E025D2C82F57
:1002E000893050F51EC080918000909181002C2FA4
:1002F000280FA7E6B0E0FC0136FF06C034913D931D
:1003000031962E13FBCF04C031913D932E13FCCFB9
:1003100001962FEF2C0F820F911D909381008093F7
:1003200080006C2F87E690E04AD0CC5FCC3041F063
:100330008FEF8093600004C08FEF80936000CEE168
:10034000C093610084E196B3957031F48150D9F780
:100350001092830010927D00C1E08111C0E0809175
:1003600062008C1739F0C11103C0F8949DD17894C4
:10037000C0936200DF91CF91089585B7826085BFF9
:100380008BB780648BBFE1E7F0E08BE481838AE583
:1003900080830895A82FB92F80E090E041E050EAD3
:1003A000609530E009C02D9182279795879510F0D0
:1003B00084279527305EC8F36F5FA8F30895EADFBE
:1003C0008D939D930895A6E088279927AA9569F0B3
:1003D0000197E1F3B099FCCFB09BFECF81E0992764
:1003E000A6B3019611F0A570D9F70895CF93CFB7B2
:1003F000CF93C395B09BE9F7B09B0BC0B09B09C0EE
:10040000B09B07C0B09B05C0B09B03C0B09B01C0B0
:10041000D5C00F92DF93C0917F00DD27CA57DF4F11
:10042000012EB09B03C0DF910F90E6CF2F930F9367
:100430001F934F932FEF4F6F06B300FB20F95F938D
:100440003F9350E03BE065C016B30126502950FDB4
:10045000C89556B3012700FB25F92F7306B3B1F0F9
:100460005027102710FB26F906B22230F0F000C00A
:1004700016B3012700FB27F90126502906B22430C4
:10048000E8F54F77206816B30000F6CF50274F7D70
:10049000206206B2102F000000C006B300265029CB
:1004A000102710FB26F906B2E2CF4F7B06B320647B
:1004B00000C0DACF01265029157006B269F14E7FCF
:1004C0002160012F16B328C0002650294D7F06B2A7
:1004D0002260102F29C0012650294B7F06B22460CC
:1004E000012F2DC016B301265029477F2860000038
:1004F00006B22EC04F7E06B3206130C0422706B33D
:10050000499300265029102706B24FEF10FB20F91F
:10051000297F16B379F2157059F10126502906B2D8
:10052000012700FB21F9237F06B371F20026502931
:100530003150D0F006B2102710FB22F9277E16B3F7
:1005400051F201265029012700FB06B223F92F7C26
:1005500049F2000006B3102710FB24F900265029A9
:1005600006B22F7939F270CF10E41ABF002719C0F4
:100570003B503195C31BD04010E41ABF0881033CA7
:1005800009F10B34F9F020917D001981110F12133C
:10059000EDCF4A81441F093651F10D3211F0013E71
:1005A00029F7009384003F915F914F911F910F9124
:1005B0002F91DF910F90CAB7C6FD1BCFCF91CFBF50
:1005C000CF91189520918400222369F31091820025
:1005D000112379F534307AF13093820020937E0034
:1005E00010917F003BE0311B30937F0024C00091CD
:1005F00082000130F4F40AE54F7049F43091610053
:1006000034FD1AC000936100C6E6D0E019C03091F5
:10061000710034FD11C000937100C2E7D0E010C03A
:10062000052710E000C021C0052710E0C89508BBD1
:1006300014C03AE501C032ED032EC0E0D0E032E054
:1006400017B31560C09A08B317BB55E020E84FEF09
:1006500020FF052708BB279517951C3F28F70000AA
:100660004552B0F720FF0527279508BB17951C3F7B
:10067000B8F629913A9561F70A7F10918300110F1E
:1006800008BBC250D04011F010937D0010E41ABF97
:10069000016017B31A7F402F4A7F54E05A95F1F753
:1006A00008BB17BB48BB7FCFDF92EF92FF920F933F
:1006B0001F93CF93DF9308E010E0C0E0D0E8DC2E7A
:1006C000DD0ED1BE80DE7C0184E3E81689E0F80609
:1006D0000CF4CD2DD6950150110989F78FEF8C0FB1
:1006E00081BF0C2F10E00F5F1F4F21B730E00217C2
:1006F00013078CF068DE8453994097FF03C09195EF
:10070000819591098E159F0514F4C1B77C0181B7BD
:100710008F5F81BFEACFC1BFDF91CF911F910F9152
:10072000FF90EF90DF900895CF9320916400C62F43
:10073000261708F4C22F4C2F50E06091650070E03E
:1007400067D0809165008C0F809365008091640074
:100750008C1B809364008C2FCF910895CF932091B0
:100760006400203839F4FC012081211102C0C198B5
:1007700001C0C19A209164002223C9F0C62F261718
:1007800008F4C22F4C2F50E06091650070E050D00B
:10079000809165008C0F80936500909164009C1B94
:1007A0009093640081E0992319F080E001C081E01A
:1007B000CF910895FC0190819076903259F4818117
:1007C000877F813039F480E880936400109265005F
:1007D0008FEF089580E00895B99AC19A9EE088E16C
:1007E0000FB6F894A89581BD0FBE91BDC6DDB89A2D
:1007F00080E0815041F0A895ECE1F0E13197F1F70C
:1008000000C00000F6CFB8987894A89582DCFDCFA0
:10081000DC01CB01FC01E199FECF06C0FFBBEEBBC2
:10082000E09A31960DB20D9241505040B8F70895BC
:10083000DC01CB0102C02D9105D041505040D8F7CA
:100840000895262FE199FECF1CBA9FBB8EBB2DBB0E
:100850000FB6F894E29AE19A0FBE01960895F894C3
:02086000FFCFC8
:02086200FF5A3B
:00000001FF
